:100000001DC024C023C022C021C020C01FC01EC0EC
:100010001DC01CC01BC01AC019C018C017C016C014
:1000200015C014C013C012C011C010C00FC00EC044
:100030000DC00CC00BC00AC009C008C011241FBEEF
:10004000CFEFD2E0DEBFCDBF02D024C0D9CF8AB37C
:100050008A608ABBD29883B7816083BF80B7836090
:1000600080BF83B7886083BF8AEF86BF8DE78CBF70
:10007000E7E6F0E080818C7F808380818F7C8083C5
:1000800080B7806280BFE6E6F0E080818160808397
:08009000DB98FECFF894FFCFCE
:00000001FF
