S01700004763634170706C69636174696F6E312E737265635B
S11300001DC024C054C022C021C020C01FC01EC0B7
S11300101DC01CC01BC01AC019C018C017C016C010
S113002015C014C013C012C011C010C00FC00EC040
S11300300DC00CC00BC00AC009C008C011241FBEEB
S1130040CFEFD2E0DEBFCDBF02D049C0D9CF8AB353
S11300508A608ABBD79883B7816083BFE9ECF0E0FC
S113006080818160808380B7836080BF83B788602C
S113007083BF8AEF86BF8DE78CBFE7E6F0E080811F
S11300808C7F808380818F7C808380B7806280BFF7
S1130090E6E6F0E0808181608083F894979A85B7E2
S11300A0816085BF8BB780618BBF7894FFCF1F922F
S11300B00F920FB60F9211248F939F93EF93FF9398
S11300C0E6E6F0E0908185E089278083FF91EF9157
S11300D09F918F910F900FBE0F901F901895F894D9
S10500E0FFCF4C
S9030000FC
