:100000001DC037C04BC135C034C033C032C031C051
:1000100020C12FC02EC02DC02CC02BC02AC029C08B
:1000200028C027C026C025C024C023C022C021C0AC
:1000300020C01FC01EC01DC01CC01BC011241FBE7D
:10004000CFEFD2E0DEBFCDBF11E0A0E0B1E0E4E24F
:10005000F7E002C005900D92A830B107D9F721E072
:10006000A8E0B1E001C01D92AA31B207E1F702D0C9
:1000700057C3C6CF8AB38A608ABBD79883B78160DB
:1000800083BF8EB581608EBD1DBC1CBC1FBC80B7FC
:10009000836080BF83B7886083BF8AEF86BF20E01C
:1000A00030E04AE753E460910001709101018091D2
:1000B000020190910301C9D223D26CBFE7E6F0E0C0
:1000C00080818C7F808380818F7C808380B78062F9
:1000D00080BF89B3803831F4E6E6F0E0808181604A
:1000E000808305C0E6E6F0E0808184608083F89438
:1000F000979A85B7816085BF8BB780618BBF81E0A0
:100100008FB91FBC1EBC84E69FEF9DBD8CBD78944B
:10011000C0900801D0900901E0900A01F0900B0115
:100120008090040190900501A0900601B090070115
:10013000A5019401C701B60184D2181644F5C090F8
:100140000001D0900101E0900201F09003012BE149
:100150003FE24DED5EE3C701B60173D28823C4F2DE
:100160002CEA35EC47E257E3C701B601F8D06093BB
:10017000000170930101809302019093030120E03C
:1001800030E04AE753E461D2BBD16CBFC1CFA501D7
:100190009401C701B60148D188230CF0B9CFC090B3
:1001A0000001D0900101E0900201F090030120E0F5
:1001B00030E040E85FE3C701B60136D118160CF411
:1001C000A7CF2CEA35EC47E257E3C701B601C8D008
:1001D00060930001709301018093020190930301E9
:1001E00020E030E04AE753E430D28AD16CBF90CFB0
:1001F0002091120130911301409114015091150189
:1002000060E070E080E89FE313D120E030E040E759
:1002100052E41BD26093160170931701809318016A
:10022000909319011092120110921301109214016F
:100230001092150110921101109210011DBC1CBCEE
:100240006091160170911701809118019091190128
:1002500008951F920F920FB60F9211248F939F93C0
:10026000AF93BF9380910C0190910D01A0910E016D
:10027000B0910F010196A11DB11D80930C019093C7
:100280000D01A0930E01B0930F01BF91AF919F910B
:100290008F910F900FBE0F901F9018951F920F9285
:1002A0000FB60F9211242F933F934F935F936F9349
:1002B0007F938F939F93AF93BF93CF93DF93EF93EE
:1002C000FF93E6E6F0E0908185E089278083C09186
:1002D0001001D09111012196D0931101C09310010A
:1002E0008CB59DB520E030E0A901609112017091BC
:1002F0001301809114019091150132D06093120185
:10030000709313018093140190931501249749F47D
:100310006FDF609308017093090180930A01909345
:100320000B011DBC1CBC10920C0110920D0110920F
:100330000E0110920F011FBCFF91EF91DF91CF9141
:10034000BF91AF919F918F917F916F915F914F91ED
:100350003F912F910F900FBE0F901F9018955058FE
:10036000BB27AA270ED033C124D130F029D120F0E9
:1003700031F49F3F11F41EF419C10EF4E095E7FB30
:100380000FC1E92F35D180F3BA17620773078407CD
:10039000950718F071F49EF54DC10EF4E0950B2E03
:1003A000BA2FA02D0B01B90190010C01CA01A001C7
:1003B0001124FF27591B99F0593F50F4503E68F122
:1003C0001A16F040A22F232F342F4427585FF3CF63
:1003D000469537952795A795F0405395C9F77EF434
:1003E0001F16BA0B620B730B840BBAF09150A1F07D
:1003F000FF0FBB1F661F771F881FC2F70EC0BA0F03
:10040000621F731F841F48F4879577956795B7958A
:10041000F7959E3F08F0B3CF9395880F08F0992782
:10042000EE0F97958795089597D008F481E0089589
:100430000CD0CDC0C5D040F0BCD030F021F45F3F2F
:1004400019F0AEC05111F7C0B1C0D2D098F39923C2
:10045000C9F35523B1F3951B550BBB27AA27621788
:100460007307840738F09F5F5F4F220F331F441FCD
:10047000AA1FA9F333D00E2E3AF0E0E830D0915005
:100480005040E695001CCAF729D0FE2F27D0660FF2
:10049000771F881FBB1F261737074807AB07B0E831
:1004A00009F0BB0B802DBF01FF2793585F4F2AF047
:1004B0009E3F510568F074C0BEC05F3FECF3983EAC
:1004C000DCF3869577956795B795F7959F5FC9F7A4
:1004D000880F911D9695879597F90895E1E0660F2D
:1004E000771F881FBB1F621773078407BA0720F0A6
:1004F000621B730B840BBA0BEE1F88F7E09508950F
:100500007FD088F09F5790F0B92F9927B751A0F06E
:10051000D1F0660F771F881F991F1AF0BA95C9F797
:1005200012C0B13081F086D0B1E0089583C0672F4A
:10053000782F8827B85F39F0B93FCCF38695779547
:100540006795B395D9F73EF4909580957095619530
:100550007F4F8F4F9F4F0895990F0008550FAA0B9B
:10056000E0E8FEEF16161706E807F907C0F01216C6
:100570001306E407F50798F0621B730B840B950BC9
:1005800039F40A2661F0232B242B252B21F408951E
:100590000A2609F4A140A6958FEF811D811D0895BB
:1005A00097F99F6780E870E060E008959FEF80EC26
:1005B000089500240A9416161706180609060895C9
:1005C00000240A9412161306140605060895092E2F
:1005D0000394000C11F4882352F0BB0F40F4BF2B9E
:1005E00011F460FF04C06F5F7F4F8F4F9F4F0895DE
:1005F00057FD9058440F551F59F05F3F71F04795D4
:10060000880F97FB991F61F09F3F79F087950895B8
:10061000121613061406551FF2CF4695F1DF08C0D7
:10062000161617061806991FF1CF869571056105F4
:1006300008940895E894BB2766277727CB0197F99C
:1006400008958ADF08F48FEF08950AD0C0CFB1DF94
:1006500028F0B6DF18F0952309F0A2CFA7CFEBCF93
:10066000C7DFA8F39923D9F35523C9F3950F50E0B9
:10067000551FAA27EE27FF27BB270024089467955C
:1006800020F4E20FF31FB41F0A1E220F331F441F72
:10069000AA1F6695A9F7779530F4F30FB41F0A1EC9
:1006A000121E08F46395330F441FAA1F221F76956C
:1006B00099F7879520F4B40F0A1E121E631F440F8A
:1006C000AA1F221F331F8695A9F7862F712D602D33
:1006D00011249F5750408AF0E1F088234AF0EE0F32
:1006E000FF1FBB1F661F771F881F91505040A9F73F
:1006F0009E3F510570F054CF9ECF5F3FECF3983E84
:10070000DCF3869577956795B795F795E7959F5FA5
:10071000C1F7FE2B880F911D9695879597F908953F
:04072000F894FFCF7B
:08072400AE47E13E0080BB443A
:00000001FF
